:100000000C942A000C9447000C9447000C94470071
:100010000C9447000C9447000C9447000C94470044
:100020000C9447000C9447000C9447000C94470034
:100030000C9447000C9447000C9447000C94470024
:100040000C9447000C9447000C9447000C94470014
:100050000C94470011241FBECFE5D4E0DEBFCDBF16
:1000600010E0A0E6B0E0E2E2F2E002C005900D92FE
:10007000A036B107D9F710E0A0E6B0E001C01D92AC
:10008000A036B107E1F70E946F000C940F010C94A9
:100090000000C09882BBC19A87EA91E60197F1F708
:1000A00000C00000C198089588E30E94490080E8DC
:1000B0000E94490086E00E94490081E00E944900B8
:1000C0008CE00E9449000895C09A82BBC19A87EAD9
:1000D00091E60197F1F700C00000C19808958FEFF5
:1000E00087BB81BB83EE86B90E9454000F2EF4E6D5
:1000F000EF2EF0E0FF2EF02D81E490E0F70109955E
:100100009924689496F80F2EF9E46F2EF0E07F2E74
:10011000F02D0F2EF8EECF2EF3E0DF2EF02D0F2E68
:10012000F4E6AF2EBB24F02D0AE010E00F2EF1E430
:100130008F2EF02D97B883EC99E00197F1F700C06E
:100140000000C4B1D5B180E890E0F3010995CE017B
:10015000B6010E94FB00CB01C096F7010995CE01C4
:10016000B5010E94FB00CB01B8010E94FB00C096C4
:10017000F7010995CE01B8010E94FB00EC01CB010B
:10018000B8010E94FB00C096F7010995CE01C09608
:10019000F701099587B883EC99E00197F1F700C062
:1001A0000000C4B1D5B188E890E0F3010995CE0113
:1001B000B6010E94FB00CB01C096F7010995CE0164
:1001C000B5010E94FB00CB01B8010E94FB00C09664
:1001D000F7010995CE01B8010E94FB00EC01CB01AB
:1001E000B8010E94FB00C096F7010995CE01C096A8
:1001F000F70109959FCFAA1BBB1B51E107C0AA1F9E
:10020000BB1FA617B70710F0A61BB70B881F991FB7
:100210005A95A9F780959095BC01CD010895F89461
:02022000FFCF0E
:00000001FF
