:100000000C942A000C9447000C9447000C94470071
:100010000C9447000C9447000C9447000C94470044
:100020000C9447000C9447000C9447000C94470034
:100030000C9447000C9447000C9447000C94470024
:100040000C9447000C9447000C9447000C94470014
:100050000C94470011241FBECFE5D4E0DEBFCDBF16
:1000600010E0A0E6B0E0ECE6F1E002C005900D92F1
:10007000A238B107D9F710E0A2E8B0E001C01D92A4
:10008000A238B107E1F70E9464000C94B4000C940C
:100090000000C09882BBC19A87EA91E60197F1F708
:1000A00000C00000C198089588E30E94490080E8DC
:1000B0000E94490086E00E94490081E00E944900B8
:1000C0008CE00E94490008958FEF81BB87BB1ABA6C
:1000D0000E94540040E050E0C0E6D0E001E010E0B3
:1000E0000F2EF0E7EF2EF0E0FF2EF02DCC24DD24D4
:1000F00029B330E0C9018170907020FD0CC041151A
:100100005105B1F780E890E00E944900CE010E94BD
:10011000A500A801EDCF8130910551F7413051057F
:1001200039F780E890E00E944900C7010E94A500CD
:10013000A601DECFC09A82BBC19A87EA91E60197F9
:10014000F1F700C00000C1980895CF93DF93EC0150
:100150008881882331F021960E949A008991882312
:0C016000D9F7DF91CF910895F894FFCFFC
:10016C004F424A454354204445544543544544006A
:10017C004F424A454354204E4F5420464F554E440F
:02018C00000071
:00000001FF
