:100000000C942A000C9447000C9447000C94470071
:100010000C9447000C9447000C9447000C94470044
:100020000C9447000C9447000C9447000C94470034
:100030000C9447000C9447000C9447000C94470024
:100040000C9447000C9447000C9447000C94470014
:100050000C94470011241FBECFE5D4E0DEBFCDBF16
:1000600010E0A0E6B0E0ECEFF0E002C005900D92E9
:10007000A437B107D9F710E0A4E7B0E001C01D92A2
:10008000A437B107E1F70E9449000C947C000C945E
:100090000000CF93DF93CDB7DEB764970FB6F89427
:1000A000DEBF0FBECDBF8FE781BBDE011196E0E65C
:1000B000F0E084E101900D928150E1F780E090E062
:1000C00020E030E0FC01EE0FFF1F41E050E04C0F5C
:1000D0005D1FE40FF51F408142BB4FE956E861E028
:1000E000415050406040E1F700C0000001968A3066
:0C00F000910544F3C901E6CFF894FFCF5E
:1000FC003F0006005B004F0066006D007D000700AE
:04010C007F006F0001
:00000001FF
