:100000000C942A000C9447000C9447000C94470071
:100010000C9447000C9447000C9447000C94470044
:100020000C9447000C9447000C9447000C94470034
:100030000C9447000C9447000C9447000C94470024
:100040000C9447000C9447000C9447000C94470014
:100050000C94470011241FBECFE5D4E0DEBFCDBF16
:1000600010E0A0E6B0E0E2EBF1E002C005900D92F6
:10007000A036B107D9F710E0A0E6B0E001C01D92AC
:10008000A036B107E1F70E946F000C94D7000C94E2
:100090000000C09882BBC19A87EA91E60197F1F708
:1000A00000C00000C198089588E30E94490080E8DC
:1000B0000E94490086E00E94490081E00E944900B8
:1000C0008CE00E9449000895C09A82BBC19A87EAD9
:1000D00091E60197F1F700C00000C19808958FEFF5
:1000E00087BB81BB83EE86B90E945400DD246894EF
:1000F000D6F80F2EF4E6EF2EF0E0FF2EF02D0F2EA7
:10010000F8EEAF2EF3E0BF2EF02D0F2EF4E68F2E7B
:100110009924F02D0AE010E0D7B883EC99E001971C
:10012000F1F700C00000C4B1D5B1CB3FD10510F04C
:10013000C29A01C0C29880E890E00E944900CE01B6
:10014000B5010E94C300CB01C096F7010995CE010D
:10015000B4010E94C300CB01B8010E94C300C09645
:10016000F7010995CE01B8010E94C300EC01CB0153
:10017000B8010E94C300C096F7010995CE01C09650
:10018000F7010995C9CFAA1BBB1B51E107C0AA1FE4
:10019000BB1FA617B70710F0A61BB70B881F991F28
:1001A0005A95A9F780959095BC01CD010895F894D2
:0201B000FFCF7F
:00000001FF
