:100000000C942A000C9447000C9447000C94470071
:100010000C9447000C9447000C9447000C94470044
:100020000C9447000C9447000C9447000C94470034
:100030000C9447000C9447000C9447000C94470024
:100040000C9447000C9447000C9447000C94470014
:100050000C94470011241FBECFE5D4E0DEBFCDBF16
:1000600010E0A0E6B0E0E6EAF1E002C005900D92F3
:10007000A036B107D9F710E0A0E6B0E001C01D92AC
:10008000A036B107E1F70E946F000C94D1000C94E8
:100090000000C09882BBC19A87EA91E60197F1F708
:1000A00000C00000C198089588E30E94490080E8DC
:1000B0000E94490086E00E94490081E00E944900B8
:1000C0008CE00E9449000895C09A82BBC19A87EAD9
:1000D00091E60197F1F700C00000C19808958FEFF5
:1000E00081BB87BB0E945400C0E0D0E00F2EF4E635
:1000F000CF2EF0E0DF2EF02D0F2EF4E6AF2EBB2436
:10010000F02D0F2EFAE0EF2EFF24F02D88249924F5
:1001100080E890E00E944900CE01B5010E94AA004B
:10012000CB01C096F6010995CE01B7010E94AA0045
:100130008C01CB01B7010E94AA00C096F601099577
:10014000C801C096F60109952196C436D10504F37D
:10015000E401DECF97FB092E07260AD077FD04D0F5
:100160000CD006D000201AF4709561957F4F089549
:10017000F6F7909581959F4F0895AA1BBB1B51E1FF
:1001800007C0AA1FBB1FA617B70710F0A61BB70B07
:10019000881F991F5A95A9F780959095BC01CD01AC
:0601A0000895F894FFCF62
:00000001FF
