:100000000C942A000C9447000C9447000C94470071
:100010000C9447000C9447000C9447000C94470044
:100020000C9447000C9447000C9447000C94470034
:100030000C9447000C9447000C9447000C94470024
:100040000C9447000C9447000C9447000C94470014
:100050000C94470011241FBECFE5D4E0DEBFCDBF16
:1000600010E0A0E6B0E0E0E6F1E002C005900D92FD
:10007000A036B107D9F710E0A0E6B0E001C01D92AC
:10008000A036B107E1F70E946F000C94AE000C940B
:100090000000C09882BBC19A87EA91E60197F1F708
:1000A00000C00000C198089588E30E94490080E8DC
:1000B0000E94490086E00E94490081E00E944900B8
:1000C0008CE00E9449000895C09A82BBC19A87EAD9
:1000D00091E60197F1F700C00000C198089583EE02
:1000E00086B981E687B98FEF81BB87BB0E94540038
:1000F0000F2EF4E6EF2EF0E0FF2EF02D04E61AE0CE
:10010000C5B180E890E00E9449008C2F602F0E94CA
:10011000A20090E0C096F70109958C2F612F0E94F4
:10012000A200D92F0E94A200892F90E0C096F7016B
:1001300009958D2F90E0C096F7010995C83900F711
:1001400012BADECF991B79E004C0991F961708F008
:10015000961B881F7A95C9F780950895F894FFCF6C
:00000001FF
