:100000000C942A000C9447000C9447000C94470071
:100010000C9447000C9447000C9447000C94470044
:100020000C9447000C9447000C9447000C94470034
:100030000C9447000C9447000C9447000C94470024
:100040000C9447000C9447000C9447000C94470014
:100050000C94470011241FBECFE5D4E0DEBFCDBF16
:1000600010E0A0E6B0E0ECE4F1E002C005900D92F3
:10007000A838B107D9F710E0A8E8B0E001C01D9298
:10008000A838B107E1F70E9449000C94A4000C9431
:100090000000CF93DF93CDB7DEB7A8970FB6F894E3
:1000A000DEBF0FBECDBF14BA8FEF8ABB81BBDE01AE
:1000B0001196E0E6F0E084E101900D928150E1F7C5
:1000C000DE015596E4E7F0E084E101900D92815065
:1000D000E1F740E050E0A0E0B0E0BE016B5E7F4F92
:1000E000EE24FF24DE2CCF2C01E010E0CD01880FA0
:1000F000991F21E030E02C0F3D1F820F931FFC0160
:10010000848982BBFE01339623B330E0C90181703C
:10011000907020FD05C04115510561F4A8010AC089
:100120008130910539F44130510521F480818BBB38
:100130004D2D5C2D3296E617F70731F71196AA3050
:0C014000B105A4F2D701D2CFF894FFCF94
:10014C0040007900240030001900120002007800F1
:10015C00000010003F0006005B004F0066006D00C1
:08016C007D0007007F006F0019
:00000001FF
