:100000000C942A000C9447000C9447000C94470071
:100010000C9447000C9447000C9447000C94470044
:100020000C9447000C9447000C9447000C94470034
:100030000C9447000C9447000C9447000C94470024
:100040000C9447000C9447000C9447000C94470014
:100050000C94470011241FBECFE5D4E0DEBFCDBF16
:1000600010E0A0E6B0E0EAE2F1E002C005900D92F7
:10007000A838B107D9F710E0A8E8B0E001C01D9298
:10008000A838B107E1F70E9449000C9493000C9442
:100090000000CF93DF93CDB7DEB7A8970FB6F894E3
:1000A000DEBF0FBECDBF8FEF8ABB81BBDE011196D5
:1000B000E0E6F0E084E101900D928150E1F7DE018D
:1000C0005596E4E7F0E084E101900D928150E1F76C
:1000D00020E030E07E010894E11CF11C0E2DDF2CA5
:1000E000CE014596A0E0B0E0F901EE0FFF1FEE0D46
:1000F000FF1DE489E2BBE02FFD2D108132961BBB72
:100100004FE956E861E0415050406040E1F700C0DF
:100110000000E817F90789F72F5F3F4F2A303105B4
:0A0120001CF39D01E1CFF894FFCF1E
:10012A004000790024003000190012000200780013
:10013A00000010003F0006005B004F0066006D00E3
:08014A007D0007007F006F003B
:00000001FF
