:100000000C942A000C9447000C9447000C94470071
:100010000C9447000C9447000C9447000C94470044
:100020000C9447000C9447000C9447000C94470034
:100030000C9447000C9447000C9447000C94470024
:100040000C9447000C9447000C9447000C94470014
:100050000C94470011241FBECFE5D4E0DEBFCDBF16
:1000600010E0A0E6B0E0E8ECF1E002C005900D92EF
:10007000A036B107D9F710E0A0E6B0E001C01D92AC
:10008000A036B107E1F70E946F000C94E2000C94D7
:100090000000C09882BBC19A87EA91E60197F1F708
:1000A00000C00000C198089588E30E94490080E8DC
:1000B0000E94490086E00E94490081E00E944900B8
:1000C0008CE00E9449000895C09A82BBC19A87EAD9
:1000D00091E60197F1F700C00000C19808958FEFF5
:1000E00087BB81BB83EE86B90E9454000F2EF0E6D9
:1000F000EF2EF02D0F2EF9E4AF2EF0E0BF2EF02DF5
:1001000004E610E00F2EF4E6FF2EF02DDAE00F2EBD
:10011000F1E6DF2EF02DE7B883EC99E00197F1F7D7
:1001200000C00000C5B180E890E0F50109958C2F72
:100130006F2D0E94D60090E0C096F80109958C2F93
:100140006D2F0E94D600C92F0E94D600892F90E003
:10015000C096F80109958C2F90E0C096F80109959A
:10016000D7B883EC99E00197F1F700C00000C5B162
:1001700088E890E0F50109958C2F6F2D0E94D6003C
:1001800090E0C096F80109958C2F6D2F0E94D60043
:10019000C92F0E94D600892F90E0C096F8010995DA
:1001A0008C2F90E0C096F8010995B5CF991B79E0A6
:1001B00004C0991F961708F0961B881F7A95C9F7F7
:0801C00080950895F894FFCF2B
:00000001FF
