:100000000C942A000C9447000C9447000C94470071
:100010000C9447000C9447000C9447000C94470044
:100020000C9447000C9447000C9447000C94470034
:100030000C9447000C9447000C9447000C94470024
:100040000C9447000C9447000C9447000C94470014
:100050000C94470011241FBECFE5D4E0DEBFCDBF16
:1000600010E0A0E6B0E0E0E3F1E002C005900D9200
:10007000A036B107D9F710E0A0E6B0E001C01D92AC
:10008000A036B107E1F70E946F000C9496000C9423
:100090000000C09882BBC19A87EA91E60197F1F708
:1000A00000C00000C198089588E30E94490080E8DC
:1000B0000E94490086E00E94490081E00E944900B8
:1000C0008CE00E9449000895C09A82BBC19A87EAD9
:1000D00091E60197F1F700C00000C19808958FEFF5
:1000E00081BB87BB0E94540080E890E00E944900D9
:1000F000C0E0D0E000E010E089E690E00E946400FB
:10010000219683E0C83ED807BCF3E801F5CFCF9332
:10011000DF93EC018881882331F021960E946400EE
:1001200089918823D9F7DF91CF910895F894FFCF73
:00000001FF
