:100000000C942A000C9447000C9447000C94470071
:100010000C9447000C9447000C9447000C94470044
:100020000C9447000C9447000C9447000C94470034
:100030000C9447000C9447000C9447000C94470024
:100040000C9447000C9447000C9447000C94470014
:100050000C94470011241FBECFE5D4E0DEBFCDBF16
:1000600010E0A0E6B0E0ECE7F1E002C005900D92F0
:10007000A838B107D9F710E0A8E8B0E001C01D9298
:10008000A838B107E1F70E9459000C94BC000C9409
:100090000000FC01EE0FFF1FEC58FF4F80818BBB6F
:1000A0000895FC01EE0FFF1FE05AFF4F808182BBD5
:1000B00008958FEF81BB8ABB14BA40E050E000E0A6
:1000C00010E0C1E0D0E00F2EFAE0CF2EDD24F02DBD
:1000D000AA24BB2401C0AE0123B330E0C901817062
:1000E000907020FD04C041155105A9F3F5CF813072
:1000F000910591F74130510579F70F5F1F4FC80106
:10010000B6010E9495007C01CB010E945100C701FD
:100110000E9449008FE996E8A1E081509040A040FC
:10012000E1F700C00000A501D7CF97FB092E0726F5
:100130000AD077FD04D00CD006D000201AF47095B8
:1001400061957F4F0895F6F7909581959F4F08959B
:10015000AA1BBB1B51E107C0AA1FBB1FA617B707ED
:1001600010F0A61BB70B881F991F5A95A9F7809509
:0C0170009095BC01CD010895F894FFCFDC
:10017C003F0006005B004F0066006D007D0007002D
:10018C007F006F004000790024003000190012003D
:08019C000200780000001000D1
:00000001FF
