:100000000C942A000C9447000C9447000C94470071
:100010000C9447000C9447000C9447000C94470044
:100020000C9447000C9447000C9447000C94470034
:100030000C9447000C9447000C9447000C94470024
:100040000C9447000C9447000C9447000C94470014
:100050000C94470011241FBECFE5D4E0DEBFCDBF16
:1000600010E0A0E6B0E0E2E3F2E002C005900D92FD
:10007000A036B107D9F710E0A0E6B0E001C01D92AC
:10008000A036B107E1F70E946F000C9417010C94A1
:100090000000C09882BBC19A87EA91E60197F1F708
:1000A00000C00000C198089588E30E94490080E8DC
:1000B0000E94490086E00E94490081E00E944900B8
:1000C0008CE00E9449000895C09A82BBC19A87EAD9
:1000D00091E60197F1F700C00000C19808958FEFF5
:1000E00087BB81BB83EE86B90E9454009924689433
:1000F00096F80F2EF9E46F2EF0E07F2EF02D0F2EE4
:10010000F4E6EF2EF0E0FF2EF02D0F2EF8EECF2EBE
:10011000F3E0DF2EF02D0F2EF4E6AF2EBB24F02DF2
:100120000AE010E00F2EF1E48F2EF02D97B883EC4B
:1001300099E00197F1F700C00000C4B1D5B1CA3F02
:10014000D10510F4C29A01C0C29880E890E0F30192
:100150000995CE01B6010E940301CB01C096F701BB
:100160000995CE01B5010E940301CB01B8010E949F
:100170000301C096F7010995CE01B8010E94030161
:10018000EC01CB01B8010E940301C096F70109956B
:10019000CE01C096F701099587B883EC99E00197E5
:1001A000F1F700C00000C4B1D5B1CD33D10510F0D6
:1001B000C49A01C0C49888E890E0F3010995CE0183
:1001C000B6010E940301CB01C096F7010995CE014B
:1001D000B5010E940301CB01B8010E940301C09642
:1001E000F7010995CE01B8010E940301EC01CB0192
:1001F000B8010E940301C096F7010995CE01C0968F
:10020000F701099593CFAA1BBB1B51E107C0AA1F99
:10021000BB1FA617B70710F0A61BB70B881F991FA7
:100220005A95A9F780959095BC01CD010895F89451
:02023000FFCFFE
:00000001FF
