:100000000C942A000C9447000C9447000C94470071
:100010000C9447000C9447000C9447000C94470044
:100020000C9447000C9447000C9447000C94470034
:100030000C9447000C9447000C9447000C94470024
:100040000C9447000C9447000C9447000C94470014
:100050000C94470011241FBECFE5D4E0DEBFCDBF16
:1000600010E0A0E6B0E0EAEBF0E002C005900D92EF
:10007000A036B107D9F710E0A0E6B0E001C01D92AC
:10008000A036B107E1F70E9449000C945B000C9484
:1000900000008FEF8ABB11BA1BBA8AE08099FECFAD
:1000A0008BBB2FE936E841E0215030404040E1F77A
:0A00B00000C00000F3CFF894FFCF6A
:00000001FF
