:100000000C942A000C9447000C9447000C94470071
:100010000C9447000C9447000C9447000C94470044
:100020000C9447000C9447000C9447000C94BE00BD
:100030000C9447000C9447000C9447000C94470024
:100040000C9447000C9447000C9447000C94470014
:100050000C94470011241FBECFE5D4E0DEBFCDBF16
:1000600010E0A0E6B0E0E2E0F2E002C005900D9200
:10007000A036B107D9F710E0A0E6B0E001C01D92AC
:10008000A83CB107E1F70E945F000C94FF000C94BC
:10009000000010BC83E389B98AB188618AB980B550
:1000A000866880BD5F9A0895C09A82BBC19A87EA2C
:1000B00091E60197F1F700C00000C19808958FEF15
:1000C00081BB87BB8ABB0E94EF000E9449007894E5
:1000D00002E610E00F2EF3E6EF2EF0E0FF2EF02DFB
:1000E0000F2EF4E6CF2EF0E0DF2EF02DC6ECD0E0A0
:1000F0001092C7001092C600F8018081833499F4F1
:10010000F70180818D3479F4F6018081843559F4CA
:10011000E5E6F0E08081893431F487EA91E60197E1
:10012000F1F700C000008091C6009091C700F8016F
:10013000E80FF91F20812C32C1F0FC01ED59FF4F6F
:10014000019621912C32E1F78093C6009093C7006D
:10015000F801E80FF91F818190E00E9454000CC063
:100160001192EC17FD07E1F7C3CFF801E80FF91F73
:10017000818190E00E945400F801F2CF1F920F920B
:100180000FB60F9211242F938F939F93EF93FF93AA
:1001900080916000909161002CB1FC01EE59FF4FFD
:1001A000208301969093610080936000FF91EF910E
:1001B0009F918F912F910F900FBE0F901F901895C8
:1001C0005D9BFECF8CB90895C09882BBC19A87EA27
:1001D00091E60197F1F700C00000C198089588E307
:1001E0000E94E40080E80E94E40086E00E94E400AF
:1001F00081E00E94E4008CE00E94E4000895F894FD
:02020000FFCF2E
:00000001FF
