:100000000C942A000C9447000C9447000C94470071
:100010000C9447000C9447000C9447000C94470044
:100020000C9447000C9447000C9447000C94470034
:100030000C9447000C9447000C9447000C94470024
:100040000C9447000C9447000C9447000C94470014
:100050000C94470011241FBECFE5D4E0DEBFCDBF16
:1000600010E0A0E6B0E0E0E2F2E002C005900D9200
:10007000A036B107D9F710E0A0E6B0E001C01D92AC
:10008000A036B107E1F70E946F000C940E010C94AA
:100090000000C09882BBC19A83EC99E00197F1F708
:1000A00000C00000C198089588E30E94490080E8DC
:1000B0000E94490086E00E94490081E00E944900B8
:1000C0008CE00E9449000895C09A82BBC19A83ECDB
:1000D00099E00197F1F700C00000C19808958FEFF3
:1000E00081BB87BB0E945400442455240F2EF9E4A1
:1000F000AF2EF0E0BF2EF02D0F2EF4E6EF2EF0E045
:10010000FF2EF02D0F2EFAE0CF2EDD24F02D22242D
:100110003324722C632C86E890E0F50109958AE37C
:1001200090E0F701099584E890E0F5010995C20196
:10013000B6010E94E700EC01CB01C096F7010995DA
:10014000CE01C096F7010995410189E890E0F501DB
:1001500009958AE390E0F701099587E890E0F501B9
:100160000995C401B6010E94E700EC01CB01C096DD
:10017000F7010995CE01C096F7010995072D162DB7
:100180008AE890E0F5010995C801B6010E94E700F0
:10019000EC01CB01C096F7010995CE01C096F7019D
:1001A00009950F5F1F4F0C33110551F70894811CFF
:1001B000911C8CE38816910441F60894411C511C53
:1001C00088E1481651040CF4A6CF2101A4CF97FB77
:1001D000092E07260AD077FD04D00CD006D00020C7
:1001E0001AF4709561957F4F0895F6F79095819573
:1001F0009F4F0895AA1BBB1B51E107C0AA1FBB1F3D
:10020000A617B70710F0A61BB70B881F991F5A95A2
:10021000A9F780959095BC01CD010895F894FFCF82
:00000001FF
