:100000000C942A000C9447000C9447000C94470071
:100010000C9447000C9447000C9447000C94470044
:100020000C9447000C9447000C9447000C94470034
:100030000C9447000C9447000C9447000C94470024
:100040000C9447000C9447000C9447000C94470014
:100050000C94470011241FBECFE5D4E0DEBFCDBF16
:1000600010E0A0E6B0E0ECEEF0E002C005900D92EA
:10007000A437B107D9F710E0A4E7B0E001C01D92A2
:10008000A437B107E1F70E9449000C9474000C9466
:100090000000CF93DF93CDB7DEB764970FB6F89427
:1000A000DEBF0FBECDBF1ABA8FEF81BBDE01119646
:1000B000E0E6F0E084E101900D928150E1F7E9B3D0
:1000C000F0E0EF70F070EE0FFF1F81E090E08C0F1A
:1000D0009D1FE80FF91F808182BB87EA91E6019797
:0C00E000F1F700C00000EBCFF894FFCF58
:1000EC003F0006005B004F0066006D007D000700BE
:0400FC007F006F0012
:00000001FF
