:100000000C942A000C9447000C9447000C94470071
:100010000C9447000C9447000C9447000C94470044
:100020000C9447000C9447000C9447000C94470034
:100030000C9447000C9447000C9447000C94470024
:100040000C9447000C9447000C9447000C94470014
:100050000C94470011241FBECFE5D4E0DEBFCDBF16
:1000600010E0A0E6B0E0EAEDF0E002C005900D92ED
:10007000A036B107D9F710E0A0E6B0E001C01D92AC
:10008000A036B107E1F70E9449000C946B000C9474
:1000900000001ABA8FEF87BB4FE03FEF20EF89B324
:1000A00090E0837090708130910579F082309105F5
:1000B0001CF4009741F0F3CF8230910541F083307A
:1000C000910569F706C038BBEACF28BBE8CF48BB2B
:0A00D000E6CF18BAE4CFF894FFCF92
:00000001FF
