:100000000C942A000C9447000C9447000C94470071
:100010000C9447000C9447000C9447000C94470044
:100020000C9447000C9447000C9447000C94470034
:100030000C9447000C9447000C9447000C94470024
:100040000C9447000C9447000C9447000C94470014
:100050000C94470011241FBECFE5D4E0DEBFCDBF16
:1000600010E0A0E6B0E0E2E3F5E002C005900D92FA
:10007000A437B107D9F712E0A4E7B0E001C01D92A0
:10008000A434B107E1F70E9475020C9497020C9416
:100090000000C0988BBBC19A87EA91E60197F1F7FF
:1000A00000C00000C1980895C09A8BBBC19A87EA2E
:1000B00091E60197F1F700C00000C198089510BCC7
:1000C00083E389B98AB188618AB980B5866880BDC1
:1000D00008955D9BFECF8CB908955F9BFECF8CB1D8
:1000E0000895CF93DF93EC018881882361F02196F6
:1000F0000E94690083EC99E00197F1F700C00000CD
:1001000089918823A9F7DF91CF9108952F923F928B
:100110004F925F926F927F928F929F92AF92BF9217
:10012000CF92DF92EF92FF920F931F93CF93DF93C3
:1001300000D00F92CDB7DEB7182F8AB188618AB987
:1001400083EC99E00197F1F700C0000080E690E0B1
:100150000E9471008DE00E946900E3ECF9E03197A4
:10016000F1F700C000008AE690E00E9471001A30AA
:1001700048F4812F6AE00E948B02892F805D0E94E3
:10018000690010C02AE0812F622F0E948B02192F74
:100190000E948B02892F805D0E946900812F805D03
:1001A0000E94690083EC99E00197F1F700C000001C
:1001B0008DE00E946900CC24DD24198210E00F2E0E
:1001C000FDE7AF2EF0E0BF2EF02D0F2EF7E1EF2E62
:1001D000F1E0FF2EF02D9924939400E0892C0F2E4E
:1001E000F9E44F2EF0E05F2EF02D0F2EF7E26F2E88
:1001F000F1E07F2EF02D0F2EF6E02F2EF02D0F2E9A
:10020000F5E03F2EF02D02C097E099830E946D002B
:10021000823509F47DC0E981E13019F4853439F47F
:1002200079C0F981F23019F4813439F476C09981BA
:10023000933019F4843439F473C0E981E43019F44B
:10024000823241F470C0F981F53021F48C32F1F63C
:100250002982DCCF99819630C9F68232B9F61436FC
:10026000F8F40E946D00F501E10FF11D8083E1E0DB
:10027000DE1629F4F701EC0DF11D8083C3948A305A
:1002800019F4DD2041F005C08D3019F4F1E0DF16DE
:1002900049F01F5F01C0D82C143618F3098303C03E
:1002A000098301C0998280E890E0F20109959B8260
:1002B0000A8306C08A818F5F8A839B819F5F9B83AD
:1002C000EA81E03148F4F7018A81E80FF11D80816D
:1002D000902F0E94540015C09A81903151F480EC07
:1002E00090E0F2010995F3018081902F0E94540063
:1002F000E1CFF7018A81E80FF11D8081902F0E94E4
:1003000054009B819032B0F2E981EE2371F47CCFEE
:1003100099827CCFF2E0F98379CF83E0898376CF2D
:1003200094E0998373CF398271CF0F900F900F9023
:10033000DF91CF911F910F91FF90EF90DF90CF90C1
:10034000BF90AF909F908F907F906F905F904F90F5
:100350003F902F9008952F923F924F925F926F920D
:100360007F928F929F92AF92BF92CF92DF92EF9245
:10037000FF920F931F93CF93DF938AB188618AB95D
:1003800083EC99E00197F1F700C00000CC24FF2432
:10039000C0E0D0E00DE710E00F2EF7E06F2EF02D5B
:1003A0000F2EF3E8AF2EF0E0BF2EF02D15010894CC
:1003B000210831080F2EF2E84F2EF0E05F2EF02DCD
:1003C0000F2EF5E0DF2EF02D0F2EF6E07F2EF02D14
:1003D0008824689482F80F2EF3E09F2EF02DEE24EF
:1003E0006894E1F80E946D00CC2319F4833459F429
:1003F0004FC0C23019F48D3461F44CC0C33019F4CD
:10040000843571F449C0C43021F4893409F047C0FF
:1004100045C0C53029F48A3309F041C0C72D3FC01B
:10042000C630E9F58032D9F50E946D00F801ED0F74
:10043000F11D80838D3021F49D2FD63018F409C032
:10044000DF5FF2CF8D2D8F5F8917E9F7EBEFFE0E9F
:10045000F90EF1E0FF1641F4F20180810F2EF0ED6C
:10046000CF2EF02DC80E0FC0F2E0FF1661F4F5019B
:1004700090819051F1018081880FC82ECC0CCC0C5A
:100480008C0DC92EC80E8C2D0E948600C62D07C06B
:10049000CE2D05C0C92D03C0C82D01C0CD2DDA3029
:1004A00008F4A0CFDF91CF911F910F91FF90EF90B3
:1004B000DF90CF90BF90AF909F908F907F906F9084
:1004C0005F904F903F902F90089588E30E944900DD
:1004D00080E80E94490086E00E94490081E00E9475
:1004E00049008CE00E94490008958FEF8ABB87BBCA
:1004F0000E945F008FE39DE0A3E081509040A04008
:10050000E1F700C000000E94650281E40E945400EF
:100510000E94AB01FDCF991B79E004C0991F96178B
:1005200008F0961B881F7A95C9F780950895F8946E
:02053000FFCFFB
:1005320041542B434D47463D310041542B434D47D7
:04054200523D000026
:00000001FF
